:03000000020006F5
:03005F0002000399
:0300030002006296
:16006200751CF3751D00751E8090000875F04012007890000022E6
:0D00F30048656C6C6F2C20576F7264210003
:2000780085821F85832085F021AA1CAB1DAC1EA81FA920AF218A828B838CF01200D3FEA3B0
:20009800AA82AB83888289838FF0EE1200B8A3A882A983EE70DF851F828520838521F02265
:06003500E478FFF6D8FD9F
:200013007900E94400601B7A00900100780075A000E493F2A308B8000205A0D9F4DAF27593
:02003300A0FF2C
:1B00B80020F71130F6138883A88220F509F6A8837583002280FEF280F5F02247
:20003B007800E84400600A790075A000E4F309D8FC7800E84400600C7900900000E4F0A3C5
:04005B00D8FCD9FAFA
:0D0006007581211200EFE582600302000306
:1C00D30020F71430F6148883A88220F507E6A88375830022E280F7E49322E0223C
:0400EF0075820022F4
:00000001FF
